S02100004D61747465724C696768744F7665725468726561645F746573742E7333375B
S31508006000001200200183030879E9090841070808F6
S31508006010230D0A0879E9090879E9090879E90908D7
S3150800602079E9090879E9090879E90908F1630008AD
S3150800603079E9090838290D08916300081F1A0A0822
S31508006040F587030879E9090879E9090879E9090862
S3150800605079E9090879E9090879E9090879E9090866
S3150800606079E9090879E9090879E9090845940008E8
S3150800607079E9090879E9090879E9090879E9090846
S3150800608079E9090879E9090879E9090879E9090836
S3150800609079E909086D8E030879E9090879E9090893
S315080060A079E90908618F03083D8F030879E909082A
S315080060B079E90908DD8B07086196070825E90B08C1
S315080060C021E90B08058E070831E90B0829E90B08B1
S315080060D0359607082DE90B08A19607080D970708B6
S315080060E079E9090879E9090879E9090879E90908D6
S315080060F0450A0A0879E9090879E9090879E90908D8
S3150800610079E9090879E9090879E9090879E90908B5
S3150800611079E9090879E9090879E9090879E90908A5
S3150800612079E9090879E9090879E9090879E9090895
S3150800613079E9090879E9090879E9090879E9090885
S3150800614079E909087DBB030879E90908490E0A08AF
S315080061503D6F070879E909087BE80B0881E80B0811
S3150800616079E9090879E9090879E9090879E9090855
S31508006170F0B5114A114C124E00F00105E3695F07AC
S3150800618013D40DB9334213D103EA00078F4207D15E
S315080061900B4A1A40002A0CBF00206FF00100F0BD20
S315080061A0013AEBD16FF00200F9E74FF0FF30F6E75E
S315080061B06FF00100F3E700BF8096980000000350D7
S315080061C00200010070B50B4BD96911F480310DD16D
S315080061D001244FF48072084E084DF46020462C6462
S315080061E01A61FFF7C5FF3464EC6070BD6FF00100FB
S315080061F0FBE700BF000003500010035000200350C7
S315080062004FF4803238B50E4B0E4C9A66E56941F666
S31508006210713315400122E3630B4B0021DA60022338
S31508006220606121202361FFF7A3FF10B92120FFF742
S315080062309FFF0122054BDA600DB10023E36338BDE9
S315080062400090005000000350001003500020035037
S3150800625070B5134C6061E3695B071ED40E4656F8A9
S31508006260043B8D18A361AE420BD1042300212120E3
S315080062702361FFF77DFF58B9BDE870402120FFF77D
S3150800628077BF08210846FFF773FF10B1042323617F
S3150800629070BD56F8043BA361E5E74FF0FF30F7E71A
S315080062A0000003502DE9F84315464FF48032184B89
S315080062B089469A6603F51C33DF690646174041F698
S315080062C07132DA63012203F58053DFF84C80DA6015
S315080062D055B9284601220F4BDA601FB10022A3F5F3
S315080062E00053DA63BDE8F88306F5005404EA0804A7
S315080062F0A41BAC4228BF2C46494622463046FFF727
S31508006300A7FF0028E6D12644A1442D1BE0E700BFDD
S31108006310009000500020035000E0FFFF42
S315080063200B4A1168086806C881F30B88022181F3B5
S315080063301488203080F30988BFF36F8F4FF0000070
S3150800634080F31188104700BFAFF30080AFF30080D9
S31508006350A8B70120000000000000000000000000AF
S3150800636007480068006880F3088862B661B6BFF31C
S315080063704F8FBFF36F8F02DF00BF00BFAFF3008000
S3150800638008ED00E00000000000000000000000002A
S31508006390EFF30980EFF30B82734620E9FC0F104AEE
S315080063A0116808604FF0300080F31188BFF34F8FF3
S315080063B0BFF36F8F3EF05EFC4FF0000080F311884C
S315080063C0074A11680868B0E8FC0F82F30B8880F367
S315080063D009881847AFF30080AFF30080AFF3008059
S315080063E0A8B701200000000000000000000000001F
S315080063F01EF0040F0CBFEFF30880EFF30980044981
S31508006400084700BFAFF30080AFF30080AFF300800A
S31508006410115C0408000000002DE9F04F2DED028BF9
S31508006420884204460D4617461E4697B00AD10346CB
S3150800643001211D202E4A17B0BDEC028BBDE8F04F96
S3150800644091F08BBE9FED288B0DF10C092A21484649
S315080064500DF1140819F0D4F999E8030088E8030047
S31508006460DFF890A0DFF890B0BDF81400BDF816303C
S31508006470834204D117B0BDEC028BBDE8F08F19F04A
S31508006480FBFA337881468DF824408DF825508DF82F
S3150800649026708DF828300BB173680B9309AB0893F7
S315080064A0CDF81CA007F06EFA00230E938DF8403045
S315080064B08DF851302A23ADF830904FF001090D932D
S315080064C00CAA6B4607A98DED128B8DF850907DF0BE
S315080064D027FC034620B15A4649461D2091F03DFE49
S315080064E0404688F091FFBFE700000000000000006A
S315080064F0A06D0C08AC6E0C08E06D0C0800000000DE
S315080065002DE9F04F2DED028B9FED318B9DB00DF1EE
S3150800651008092A21044604AD484616461F46DDF8F2
S31508006520A48019F06DF999E8030085E80300DFF8FF
S31508006530A8A0DFF8A8B0BDF81000BDF81230834255
S3150800654004D11DB0BDEC028BBDE8F08F19F094FAAA
S31508006550289B81461B78CDE90A6708948DF8303068
S315080065601BB1289B5B788DF8313098F800308DF890
S3150800657038301BB1D8E90223CDE9102308AB0793BD
S31508006580CDF818A007F0FEF900232A228DF8583016
S315080065908DF869300223ADF848904FF00109CDE92E
S315080065A0132306A96B4612AA8DED188B8DF86890F1
S315080065B07DF0B6FB034620B15A4649461D2091F0A8
S315080065C0CCFD284688F020FFB5E700BFAFF3008072
S315080065D00000000000000000D46E0C08376E0C089E
S315080065E02DE9F04F2DED028B083085B00F46914608
S315080065F0DDF8508091F0A6FC0446002800F09D8046
S315080066006E4600259FED508B4FF0010B41F2A45AC0
S3150800661010AB0FCB86E80F004D4BC4E9025523603B
S31508006620C4E90455C4E906552C336360494B04F1A3
S31508006630480C0FCB84ED0E8BC4E90C5584F820501A
S3150800664084F840508CE80F00434B84F858B0A4F8FF
S315080066505AA0E565C4E91955236604F17403C4E92B
S315080066601D3304F18003C4E9203304F18C03C4E923
S3150800667023333A4B1022C4F8A0302946C4E92955D9
S3150800668084F86C50E567C4F88850C4F89450C4F888
S31508006690AC5004F1B000B9F0D1FC84F8C0B0A4F84D
S315080066A0C2A0C4F8C45004F1C80092F0C0F94AF672
S315080066B0C873C82284ED388B84ED3A8BC4E93C2331
S315080066C004F58473C4E94055C4E94233A4F8D450A8
S315080066D0A4F8D850C4F810513B68A3607B68E360FF
S315080066E0BB682361FB6863613B69A3617B69E361FE
S315080066F03B7E84F8203033B104F1240307F11C02F1
S3150800670007CA83E8070038467BF092FFA8B9B9F1B3
S31508006710000F12D0B8F1000F0FD003CE3378C4F8AB
S31508006720309084F84030012384F80031231DA0639B
S31508006730E163C4F89880C4F8AC30204605B0BDECD7
S31508006740028BBDE8F08F00BF0000000000000000CB
S31508006750C8360C08C45A01203C1E0D08B8360C0869
S315080067602DE9F04F2DED028B00240025CBB099467C
S31508006770CDE92E450023CDE93045CDE934454FF620
S31508006780FF74DFF898A2064688461746CDE90C330B
S315080067908DF8C8303393CDF8D8A04894A2B30546EF
S315080067A000F53474A54206D10B2420464BB0BDEC47
S315080067B0028BBDE8F08F28467DF025FC08B19035A0
S315080067C0F0E79FED8F8BBDF85C318DF8C880ADF88A
S315080067D020318D4B4FF4C8710E93002309A8CDE9DB
S315080067E009330F93CDF870A00B9385F057FC099CDD
S315080067F014BB0B240BA87BF011FE0AA87BF00EFE37
S3150800680009A87BF00BFED0E78AF0AFFD044608B96D
S31508006810AC24CAE706F5347528467AF0C7FDB4F8FD
S3150800682082308DF8C880ADF8203121460CA894ED49
S31508006830028B8AF01CFDCCE74FF4C8710AA885F0D4
S315080068402DFCDDF828A0BAF1000FD2D04FF4C8719C
S315080068500BA885F023FC0B9A002ACAD04FF4C873FC
S315080068604146CDE91332304610AA1094CDE9113AC3
S3150800687015938AF0DAFD04460028BBD14146304616
S3150800688012AA8AF0B4FD04460028B3D14146304620
S3150800689014AA8AF089FD04460028ABD110A916A8C7
S315080068A085F0F2FB12A918A885F0EEFB14A91AA820
S315080068B085F0EAFB36AB079330AB05930DF1B80AC2
S315080068C034ABCDE903A30DF1700B0EAB8DED008B48
S315080068D0CDF818B002931AAA18A916A81CF032FE09
S315080068E00446002886D10BA87BF098FD0AA87BF001
S315080068F095FD09A87BF092FDB9F1000F13D1D6F8E2
S31508006900640300285ED003689B6898470346D6F858
S315080069106403002B4ED003685A4641465B69984784
S31508006920044688B141E7D9F8003048465B6998477C
S3150800693059468BF041F808B9C52436E79DF8583111
S31508006940CDF8CC908DF822319DF860315146B3FAD6
S3150800695083F328465B098DF823318AF0B1FF044694
S3150800696000287FF422AF28460CA98AF0AFFC06F56A
S315080069705D7495F881303FB302211120234A91F0C6
S31508006980ECFBD5E900122B69CDE9012100936B696F
S31508006990022111201E4A91F0E0FB20460F991EF0B5
S315080069A08FFD034630BB96F88233013386F882336F
S315080069B00024FAE603684146DB6898470028C3D1F5
S315080069C01024F2E60324F0E6D5E900121120CDE9F9
S315080069D0002102210F4A91F0C0FB20460F991EF0B4
S315080069E06FFD03460028E3D0012111200A4A91F0E1
S315080069F0B4FBDDE701211120074A91F0AEFBD2E78F
S31508006A0000000000000000007CA80C08A8A70C08DD
S31508006A10C8A70C080BA80C0840A80C0880EF0C089F
S31508006A202DE9F0478AB00DF10D03019315230646AB
S31508006A3000934FF48072002308460C4690F08EF9B6
S31508006A40E8B996F89230012200932046002390F088
S31508006A500CF9A0B996F89330022200932046002339
S31508006A6090F003F958B90DF10E030193162303228A
S31508006A7000932046002390F071F9054610B10AB03C
S31508006A80BDE8F0874FF0100906F1C8070DF11808A0
S31508006A90102200214046B9F0D1FA0DF10F030193F7
S31508006AA015234FF4807200932046002390F056F980
S31508006AB00028E4D196F89320EBB29A4251D917ED03
S31508006AC00C7BC44637F828ACA7F12603A7F1160EA7
S31508006AD0624618685968083303C273459446F7D165
S31508006AE08DED007B04220023204690F099F80028BB
S31508006AF0C5D1052200232046CDF800A090F0B5F8B0
S31508006B000028BCD14046494606228DE803000023EA
S31508006B102046CDE9048990F0F4F90028AFD1204643
S31508006B209DF90F1090F04FF9013530370028A6D19E
S31508006B30032DADD120469DF90E1090F044F900289A
S31508006B409DD1B6F88A30072200932046002390F09C
S31508006B508CF8002893D120469DF90D1090F033F952
S31508006B608DE782469FED027BBAE700BFAFF3008050
S31508006B700000000000000000054B18680368D9698A
S31508006B8001A3D3E90023084700E0373B015D030072
S31508006B909C2E0220000000002DE9F043022089B057
S31508006BA03BF0B8F800B9FEE75F4E336803B9FEE775
S31508006BB010203BF0AFF833685C4C9B880DF10B0155
S31508006BC08DF80B30012320681A46B7F0E9F89DF8CE
S31508006BD00B203168023A0023096892B22068B7F0A0
S31508006BE0DFF8534B05AF93E8070087E807003368DB
S31508006BF01B681D7815F020051FD02068B6F008FF21
S31508006C00002867D02068B6F003FF73F0ADFA024695
S31508006C100B4641A1D1E9000173F04AFC804607986A
S31508006C20894673F0A1FA02460B464046494673F078
S31508006C305FF973F0ADFD012507902068B6F004FFF3
S31508006C409DF80B30002848D0981DC00073F09CFAB8
S31508006C5033A3D3E9002373F001FB804620688946F5
S31508006C60B6F0F2FE73F080FA02460B4640464946F5
S31508006C7073F01EFC80460798894673F075FA02463B
S31508006C800B464046494673F033F973F081FD326886
S31508006C900790536973BB10203BF03CF810B3079B71
S31508006CA0326803F5FA73117E0793224B99702249CD
S31508006CB00978D970917900972A462068B6F018FCA9
S31508006CC028B14FF480503BF013F928F0A3FE09B021
S31508006CD0BDE8F0830798C030ADE70798063300EBA8
S31508006CE04310D4E731683B462A4689792068B6F0CE
S31508006CF0E9FBE5E711690B44A03B03930023ADF8D4
S31508006D0010300E4B9179009301972A46206803AB01
S31508006D10B6F0F9FBD4E700BF0000000060E3664167
S31508006D200000000080842E41F4B1012050B10120FA
S31508006D3014300D08F82E022025350220EC2E0220EC
S31508006D40F7B501203AF0E6FF0446002840F0B58082
S31508006D505D4D5E4B5E4EC5E9003005F11003AB6034
S31508006D6041F60B233060B3803BF0E4FF594B1B6AB6
S31508006D70DB0700D4FEE72146284668F00BFD0446EB
S31508006D8000B9FEE76AF09AF800B1FEE720465249D4
S31508006D9069F0E0FB00B1FEE702212046B6F00BFEE3
S31508006DA000B1FEE720464D4969F076FE00B1FEE7E0
S31508006DB001212046B7F089F900B1FEE701212046F6
S31508006DC0B7F099F9074600B1FEE701463C22444868
S31508006DD0B9F034F980233A46204605F11401B6F095
S31508006DE0F5FF802800D0FEE73E4D0120B6F065FB92
S31508006DF033A3D3E900232C602046CDE900234FF0C6
S31508006E00FF324FF0FF33B6F08AFE014600B1FEE7C7
S31508006E102F483AF0C3FF012108463AF0ABFF01219B
S31508006E202868B6F01BFD044600B1FEE72E4B2F4A34
S31508006E30988018602E4B1A60FF2298802D4B83F895
S31508006E4020202D4A98801A602C4A6FF06300DA6079
S31508006E5044F0E0F833790B2B11D873790A2B0ED945
S31508006E60274B1E6034F0D8FD20463BF055FF08221C
S31508006E7028681146B6F06DFE044608B1FEE7FEE73F
S31508006E803BF042FF1F4B10211F481C709AF037FD3C
S31508006E9000B9FEE71D491C489AF043FD00B9FEE714
S31508006EA010218C201A4A99F0D7FE00B1FEE719483E
S31508006EB003B0BDE8F040A0F024BA03B0F0BD00BFAF
S31508006EC00BE020FFE203000060B10120351F040833
S31508006ED058B101200080E00F07001100E02F0D08CF
S31508006EE010B1012050B10120B0F40020EE2202209A
S31508006EF088F4002060F400206E22022050F400205E
S31508006F0054B101207023022008B20120D9150A08BD
S31508006F10F8B10120DA420C082DE9F3411E461C4B54
S31508006F20044683424FF000038B4115460AD216A346
S31508006F30D3E9002373F09CFC1649144602462846FA
S31508006F40A2F05FFE144B4EF66021B4FBF3F203FB8E
S31508006F501244B4FBF1F34FF47A7801FB1344B4FB03
S31508006F60F8F728460D490097A2F04BFE46B1284689
S31508006F7008FB17420A4902B0BDE8F041A2F041BE3B
S31508006F8002B0BDE8F08100BF005C260500000000E5
S31508006F90FF5B2605A46E0D0880EE3600B3AB0C0821
S31508006FA0AA6E0D0800000000002370B5404C054687
S31508006FB08AB0E36318B10088236061F085FF3D4815
S31508006FC0B6F0E8FC3C4E3D4B304633603C4B7360B4
S31508006FD05DF0CCFB0021304668F0DCFB32A3D3E938
S31508006FE00023A062C4E90623B3F065FAD4E90623B0
S31508006FF019431043C4E90601CDE900014FF0FF33F8
S315080070004FF0FF32A06AB6F08AFD02224FF0FF3138
S31508007010A06AB6F09EFD012061F0D6FC4FF400731D
S3150800702000222849A06AB6F0D1FEB0F5007F38D113
S3150800703000239422CDE9073309933C23CDE9033293
S3150800704005939623A06A03A9069368F0A9FF35B3AA
S31508007050287C62F0B9F80546F0B9A06AB7F090F84E
S3150800706062F060F861F092FC20B14FF48070002164
S315080070705FF0FAFD61F09AFC20B14FF40060002140
S315080070805FF0F2FDB3F0D1FA0120B6F016FA0E4A17
S315080070900E49A06AB3F003FA28460AB070BDFF206D
S315080070A0D7E70725F8E700BF0DD5015520000000F2
S315080070B0A8300120690345ECC8C101204D8806089F
S315080070C0D8C10120C8BF012047A40B0887A40B0814
S315080070D00348044B834202D0034B03B11847704759
S315080070E0283602202836022000000000064B0749F1
S315080070F0C91A891048BF0131491003D0044B0BB196
S3150800710001481847704700BF283602202836022053
S315080071100000000010B5064C237843B9FFF7D8FFE6
S31508007120044B13B10448AFF300800123237010BD4C
S31508007130B8CE01200000000048DE0D0808B5054B52
S315080071401BB105490548AFF30080BDE80840FFF7C5
S31508007150CDBF00BF000000002836012048DE0D081C
S31508007160A3F5803A704700BF174B002B08BF134B97
S315080071709D46FFF7F5FF00218B460F461348144A34
S31508007180121AB8F05BFF0E4B002B00D098470D4B38
S31508007190002B00D098470020002104000D000D4860
S315080071A0002802D00C48B8F0B9FC75F05BFA20004C
S315080071B02900B0F0DCFC74F03BFA00BF00000800C0
S315080071C0000000000000000000120020001200204D
S315080071D0E02902201DFB0B080000000010B5234C17
S315080071E033F09AFB236F012023F0070343F00203D1
S315080071F0236797F0A5FED4F82031002023F0070373
S3150800720043F00103C4F82031D4F8283123F00703EA
S3150800721043F00103C4F82831D4F8403123F00303BE
S3150800722043F00103C4F84031D4F8603123F0030376
S3150800723043F00103C4F86031D4F8403223F0030365
S3150800724043F00103C4F84032D4F8003223F00703B0
S3150800725043F00103C4F80032D4F8083223F00703D8
S3150800726043F00103C4F8083210BD00BF0080005087
S3150800727007B501A834F0D4F99DF80530012B14D1CF
S315080072809DF804308BB94FF48012174B1749586E86
S3150800729003F580535A664B6B23F0E05343F0406383
S315080072A04B63C3025CBF124B5A6637F0B9FF31F025
S315080072B013F837F0F3FD99F04EFB99F0C1FB37F060
S315080072C043FE99F0B7FB37F0FFFDFFF787FF30F075
S315080072D0F9FF31F051FA31F055FE3BF0E7FE03B005
S315080072E05DF804EB38F0D2BD008000500040005A2B
S315080072F000A00050014897F05DBC00BFD8050C08F7
S3150800730018B1034B1860002070472520704700BF4E
S315080073104036012010B5054C0549206832F060FA60
S315080073202068BDE81040FFF7EBBF00BFD42C022051
S31508007330A82B022070B58B6806460D4614468CB0FD
S31508007340ABB1022B35D00023812205F055FCD5E9D7
S31508007350012391B2120C01929AB202910092012174
S315080073601D201A4A1B0C90F0F8FE0CB070BD194689
S315080073701C2205A8B8F062FE214605A876F02DF86D
S31508007380044638B92946304605AA0CF0BBF8002849
S31508007390EBD10446294630460023852205F02CFC0D
S315080073A0234602211D200A4A0CB0BDE8704090F021
S315080073B0D4BE114605A876F049F804460028E9D156
S315080073C02946304605AA0CF029F9E0E7F0050C082D
S315080073D024060C0870B50D46AB6806460A2B1146FE
S315080073E088B037D9403B0C2B15D900238122294672
S315080073F0304605F001FCD5E9012391B2120C019241
S315080074009AB20291009201211D20B04A1B0C90F0FD
S31508007410A4FE08B070BD0C2BE7D801A252F823F0E1
S31508007420B9750008D9750008FB7500081B760008B1
S315080074303B760008EB730008EB73000865760008D6
S31508007440EB730008EB730008EB73000885760008F9
S31508007450A97600085A1E00230593092A06D8DFE8EC
S3150800746002F0232F3D4B576573808E9C05A8ADF817
S31508007470183077F0ABFB044638B92946304605AADA
S315080074800CF05AFD0028C4D104462946304600238C
S31508007490852205F0B1FB234602211D208C4A08B03F
S315080074A0BDE8704090F059BE05A877F00CFC04467C
S315080074B00028EAD12946304605AA0CF021FDE1E765
S315080074C005A88DF8183077F0ADFC04460028DCD105
S315080074D02946304605AA0CF063FDD3E705A8ADF8A2
S315080074E0183076F03CF804460028CED129463046B6
S315080074F005AA0CF037FDC5E705A876F060F804463E
S315080075000028C2D12946304605AA0CF00DFDB9E778
S3150800751005A88DF8183076F08EF804460028B4D100
S315080075202946304605AA0CF051FDABE705A8ADF88B
S31508007530183076F0BFF804460028A6D1294630460A
S3150800754005AA0CF017FD9DE705A8069376F0E5F861
S315080075500446002899D12946304605AA0CF09CFD18
S3150800756090E705A8ADF8183076F00AF90446002821
S315080075708BD12946304605AA0CF096FD82E705A868
S31508007580069376F02DF9044600287FF47EAF294647
S31508007590304605AA0CF090FD74E705A8ADF818303A
S315080075A076F054F9044600287FF46FAF2946304632
S315080075B005AA0CF089FD65E7002305A8CDE9053382
S315080075C077F03AFB044600287FF45FAF2946304639
S315080075D005AA0CF017FD55E7002305A80593ADF895
S315080075E0183077F0A0FB044600287FF44EAF2946F2
S315080075F0304605AA0CF0F2FC44E7002305A8CDE9BD
S31508007600053377F042FC044600287FF43EAF29464E
S31508007610304605AA0CF022FD34E7002305A8CDE97B
S31508007620053376F043F9044600287FF42EAF294641
S31508007630304605AA0CF0FCFC24E7002305A8ADF8A3
S3150800764014308DF816300693ADF81C3076F061F9D3
S31508007650044600287FF419AF2946304605AA0CF0DF
S3150800766013FD0FE7002305A8ADF8143076F0ACF942
S31508007670044600287FF409AF2946304605AA0CF0CF
S3150800768041FDFFE6002305A8CDE90533ADF81C301A
S3150800769077F07CFB044600287FF4F7AE294630468F
S315080076A005AA0CF019FDEDE6002305A8CDE905337A
S315080076B0079377F020FC044600287FF4E6AE2946B7
S315080076C0304605AA0CF010FDDCE600BFF0050C08F4
S315080076D024060C0870B58B680646022B0D46144620
S315080076E08AB026D0042B36D0002B41D10022ADF823
S315080076F010300023214604A8CDE9062375F0A9FD1C
S31508007700044638B92946304604AA0CF0BFFD0028BD
S3150800771040D10446294630460023852205F06CFAF6
S31508007720234602211D201C4A0AB0BDE8704090F08D
S3150800773014BD1822002104A8B8F080FC214604A82C
S3150800774076F08CFF04460028E4D12946304604AA80
S315080077500CF0CEFEDBE7114604A875F0A3FD04463F
S315080077600028D7D12946304604AA0CF007FECEE7F2
S315080077700023812205F040FAD5E9012391B2120CC3
S3150800778001929AB20291009201211D20034A1B0C14
S3150800779090F0E3FC0AB070BD24060C08F0050C084E
S315080077A070B58B6806460D4688B0ABB1012B36D04E
S315080077B00023812205F020FAD5E9012391B2120CA3
S315080077C001929AB20291009201211D201A4A1B0CBD
S315080077D090F0C3FC08B070BD00200021CDE9060179
S315080077E0114604A8CDE9043375F05FFD044638B99F
S315080077F02946304604AA83F04CF80028EAD1044604
S31508007800294630460023852205F0F6F9234602214B
S315080078101D200A4A08B0BDE8704090F09EBC11468B
S3150800782004A875F06BFD04460028E9D129463046C0
S3150800783004AA0DF0A5F9E0E7F0050C0824060C08E3
S3150800784070B50D46AB68064611469CB0042B5BD84E
S31508007850DFE803F003305A3F4E00002304A8ADF8D2
S3150800786010308DF812308DF814308DF820308DF8E0
S3150800787030308DF840308DF850308DF8603077F024
S31508007880ADFE044638B92946304604AA0DF084FAF6
S3150800789000284CD10446294630460023852205F0A7
S315080078A0ABF9234602211D20224A1CB0BDE87040D0
S315080078B090F053BC002304A8ADF8103075F048FECC
S315080078C004460028E7D12946304604AA0DF040FDB3
S315080078D0DEE7002304A8ADF8103075F03BFE044639
S315080078E00028D8D12946304604AA0DF03FFBCFE739
S315080078F004A875F031FE04460028CCD12946304646
S3150800790004AA0DF07FFDC3E700238122294605F06E
S3150800791073F9D5E9012391B2120C01929AB2029138
S31508007920009201211D20044A1B0C90F016FC1CB085
S3150800793070BD00BF24060C08F0050C0870B58B68EE
S3150800794006460D46144694B0052B7CD8DFE803F0AE
S315080079500325354C5C690023214604A8CDE9053387
S31508007960ADF8103075F008FA044638B9294630469D
S3150800797004AA83F046FA002877D1044629463046F9
S315080079800023852205F038F9234602211D20384AAE
S3150800799014B0BDE8704090F0E0BB0023214604A86F
S315080079A0ADF8103075F0EAF904460028E6D1294604
S315080079B0304604AA83F086FADDE704A88EF0D2FAE8
S315080079C0002204A811468DF848208EF00EFB2146A9
S315080079D004A877F0DEFA04460028CFD129463046B7
S315080079E004AA0DF01BFFC6E70023214604A8ADF83C
S315080079F0103075F0C5F904460028BFD1294630462F
S31508007A0004AA0DF067FFB6E7214604A875F0BAF98F
S31508007A1004460028B2D12946304604AA0DF0D4FE01
S31508007A20A9E70023214604A8CDE90533ADF81030AF
S31508007A3075F0BCF904460028A0D12946304604AAA8
S31508007A4083F08DF997E70023812205F0D5F8D5E96B
S31508007A50012391B2120C01929AB20291009201216D
S31508007A601D20044A1B0C90F078FB14B070BD00BFB3
S31508007A7024060C08F0050C0870B58B6806460D46FA
S31508007A8086B0ABB1402B32D00023812205F0B4F882
S31508007A90D5E9012391B2120C01929AB20291009291
S31508007AA001211D201A4A1B0C90F057FB06B070BD29
S31508007AB0114605A8ADF8143075F0FBF8044638B938
S31508007AC02946304605AA83F0DFFA0028EED1044697
S31508007AD0294630460023852205F08EF823460221E2
S31508007AE01D200C4A06B0BDE8704090F036BB002356
S31508007AF0114605A8ADF8143075F0FDF804460028BF
S31508007B00E6D12946304605AA0DF0B2FFDDE700BFEB
S31508007B10F0050C0824060C0870B50D46AB68064639
S31508007B20114686B0072B00F29780DFE803F004279A
S31508007B30374655677786002304A88DF81030ADF8C8
S31508007B401230059377F053FA044640B92946304671
S31508007B5004AA83F0F7FA002840F0918004462946E3
S31508007B6030460023852205F047F8234602211D20CA
S31508007B70444A06B0BDE8704090F0EFBA002304A866
S31508007B8004938DF8143077F067FA04460028E6D196
S31508007B902946304604AA0EF073FDDCE7002304A844
S31508007BA0CDE9043377F097FA04460028D7D1294659
S31508007BB0304604AA0EF0AEFECDE7002304A8ADF8C1
S31508007BC0103077F0CDFA04460028C8D12946304649
S31508007BD004AA0EF03FFABEE7002304A88DF8103079
S31508007BE0ADF81230059377F035FA04460028B6D179
S31508007BF02946304604AA0EF077FBACE7002304A812
S31508007C0004938DF8143077F064FA04460028A6D158
S31508007C102946304604AA0EF077FD9CE7002304A8FF
S31508007C20CDE9043377F09AFA0446002897D1294615
S31508007C30304604AA0EF0B8FE8DE7002304A8ADF876
S31508007C40103077F0B2FA0446002888D12946304623
S31508007C5004AA0EF021FA7EE700238122294604F0C1
S31508007C60CBFFD5E9012391B2120C01929AB2029187
S31508007C70009201211D20044A1B0C90F06EFA06B0F2
S31508007C8070BD00BF24060C08F0050C0870B58B689B
S31508007C9006460C468CB033BB00200021CDE9040112
S31508007CA0114604A8ADF818308DF81A308DF81C3036
S31508007CB0ADF8283076F0B4FA054628B9214630469C
S31508007CC004AA13F0A1FB00BB2146304600238522F7
S31508007CD004F092FF2B4602211D200D4A0CB0BDE888
S31508007CE0704090F03ABA0023812204F085FFD4E967
S31508007CF0012391B2120C01929AB2029100920121CB
S31508007D001D20044A1B0C90F028FA0CB070BD00BF69
S31508007D1024060C08F0050C0870B50D46AB68064637
S31508007D20402B114686B065D01AD8012B4AD0022BB3
S31508007D3054D05BB3002381222946304604F05CFF09
S31508007D40D5E9012391B2120C01929AB202910092DE
S31508007D5001211D20354A1B0C90F0FFF906B070BDB5
S31508007D60412B56D0422BE5D1002304A88DF81030BC
S31508007D70ADF81230ADF8143075F058F8044690B9DD
S31508007D802946304604AA10F013F909E004A875F04C
S31508007D900FF8044638B92946304604AA10F0E0F828
S31508007DA00028DBD10446294630460023852204F004
S31508007DB023FF234602211D201D4A06B0BDE8704058
S31508007DC090F0CBB904A874F0F6FF04460028EAD16F
S31508007DD02946304604AA10F0CBF8E1E704A874F067
S31508007DE0EDFF04460028DED12946304604AA10F0E5
S31508007DF0C7F8D5E7002304A8ADF8103074F0E1FF02
S31508007E0004460028CFD12946304604AA10F0C0F807
S31508007E10C6E704A875F007F804460028C3D1294622
S31508007E20304604AA10F0BCF8BAE700BFF0050C0803
S31508007E3024060C082DE970430D46AB680646114624
S31508007E4090B00B2B00F2A280DFE803F006A026A074
S31508007E5035A04661A0728190002304A8CDE90433B9
S31508007E6075F0F7FA044640B92946304604AA10F0D8
S31508007E70F3FE002840F09D8004462946304600233C
S31508007E80852204F0B9FE234602211D204A4A10B075
S31508007E90BDE8704390F061B9002304A88DF810304E
S31508007EA075F0D9FA04460028E7D12946304604AACF
S31508007EB010F070FEDDE7002304A8CDE904338DF841
S31508007EC0183076F027F904460028D6D129463046D8
S31508007ED004AA10F0A1FFCCE700234FF000084FF0EA
S31508007EE0000904A8CDE90433CDE90933CDE90C89A5
S31508007EF08DF81830ADF8383076F044FA0446002884
S31508007F00BBD12946304604AA10F05CFBB1E7002332
S31508007F1004A8CDE904338DF8183076F031FA044612
S31508007F200028AAD12946304604AA10F09DFAA0E7EF
S31508007F30002304A8CDE9043375F0B7FA04460028EF
S31508007F409BD12946304604AA10F02CFD91E7002360
S31508007F5004A88DF8103075F0CAFA044600288CD1AA
S31508007F602946304604AA10F09FFD82E7002304A89C
S31508007F70CDE9043375F0BDFA044600287FF47DAFD9
S31508007F802946304604AA10F04DF972E700238122EB
S31508007F90294604F031FED5E9012391B2120C01926B
S31508007FA09AB20291009201211D20044A1B0C90F0FE
S31508007FB0D4F810B0BDE8708324060C08F0050C0848
S31508007FC070B58B6806460C4686B0D3B9114605A827
S31508007FD075F0DBF9054628B92146304605AA13F09F
S31508007FE005FF00BB214630460023852204F004FE27
S31508007FF02B4602211D200D4A06B0BDE8704090F0C0
S31508008000ACB80023812204F0F7FDD4E9012391B22C
S31508008010120C01929AB20291009201211D20044A83
S315080080201B0C90F09AF806B070BD00BF24060C0829
S31508008030F0050C0837B5436804463F2B154659D852
S315080080402F2B14D8082B4BD8022B37D89AB200926C
S3150800805001211D20554A1B0C90F07FF80023C322EE
S315080080602146284603B0BDE8304004F0C5BDA3F15B
S3150800807030020F2AEAD801A050F822F01B81000826
S315080080804D8000084D8000082B8100084D800008AF
S315080080909B8100084D8000084D8000084D8000082F
S315080080A04D8000084D8000084D8000080B810008AF
S315080080B04D8000088B8100083B810008DA1E052ADE
S315080080C0C4D801A050F822F05B8100084B81000853
S315080080D04D8000087B8100084D8000086B810008F0
S315080080E02A2BB3D10A460146284603B0BDE83040DC
S315080080F0FFF7CCBDB3F5407FA8D10A46014628460E
S3150800810003B0BDE83040FFF765B90A462846214660
S3150800811003B0BDE83040FFF70DB90A4628462146A8
S3150800812003B0BDE83040FFF7D5BA0A4628462146CF
S3150800813003B0BDE83040FFF733BB0A462846214660
S3150800814003B0BDE83040FFF77BBB0A462846214608
S3150800815003B0BDE83040FFF7F1BB0A462846214682
S3150800816003B0BDE83040FFF787BC0A4628462146DB
S3150800817003B0BDE83040FFF7CFBC0A462846214683
S3150800818003B0BDE83040FFF7C7BD0A46284621467A
S3150800819003B0BDE83040FFF74DBE0A4628462146E3
S315080081A003B0BDE83040FFF70BBF00BF4D060C0813
S315080081B040F20113984219D0B0F5817F05D23C28C8
S315080081C00CD099280FD00020704740F20E539842E1
S315080081D021D0134B9842F6D1122918E002298CBFF8
S315080081E0002001207047481E0628F8E72929EAD802
S315080081F0192903D8012909D8012070474FF2091314
S31508008200A1F11A00C34003F001007047032914BF07
S315080082100020012070470029EED0881E0128DEE7DD
S3150800822005FCF1FF48F2040302889A4202BF027A6B
S31508008230014B1A70704700BFBACE012002211D20DB
S31508008240014A8FF08ABF00BF69060C0802211D206B
S31508008250014A8FF082BF00BF79060C0808B5044AA8
S3150800826002211D208FF079FFFF22024B1A7008BDEC
S3150800827088060C081F35022070B5294D037D044673
S315080082802B70837D23B103212120264A8FF065FFB9
S315080082902B78FE2B22D0FF2B30D00B2B37D80B2B6D
S315080082A035D8DFE803F0061206343434343434346F
S315080082B0341290F069FC036841F288315D692346FF
S315080082C0194AAC46BDE87040604790F05DFC03680B
S315080082D042F210715D69144A2346F2E790F054FCA5
S315080082E0036822465B6A1049984790F04DFC03687C
S315080082F04FF47A715D690C4A2346E2E790F044FC34
S3150800830003682246BDE870405B6A07491847FF23A1
S315080083102B700221BDE870401D20044A8FF01DBF56
S315080083201F350220A2060C085D820008D5060C0837
S3150800833010B50A200C460E4A10213BF0CFFA0D4B19
S31508008340186030B90C4823F0BFFB40F2017078F092
S315080083500AFA2046094A07493AF046FF30B908485A
S3150800836023F0B2FB40F2027078F0FDF9002010BD50
S3150800837070090C08CC370120EA060C084C090C08D1
S315080083800D070C0808B50C4891F06BFE58B10B4860
S3150800839091F064FF094891F0CAFF094825F0AAFC44
S315080083A0054891F067FE074B186818B1BDE8084004
S315080083B000F0B8B908BD00BF289E002048BB0020C1
S315080083C0786D0120A436012008B5084B18683BF0E3
S315080083D097F8013008D1064823F076FBBDE8084037
S315080083E040F2067078F0BFB908BD00BFD437012047
S315080083F027070C084FF47A7108B5094B8002B0FBC1
S31508008400F1F118683BF056F840B1064823F05CFBDA
S31508008410BDE8084040F2057078F0A5B908BD00BF70
S31508008420D43701203F070C0808B540F6B83105488F
S3150800843023F04AFB40F6B830FFF7DCFF0122024B77
S315080084401A7008BD58070C08B9CE012008B5FFF701
S31508008450BBFF054B1A7832B100221A700348BDE8F3
S31508008460084023F031BB08BDB9CE012097070C0898
S3150800847008B5084B0A2118683BF01CF840B10648B5
S3150800848023F022FBBDE8084040F2057078F06BB98E
S3150800849008BD00BFD0370120B7070C0808B5084B40
S315080084A00146186848B1002318223BF05DFA30B13E
S315080084B00448BDE8084023F007BB0348F9E708BDB0
S315080084C0CC370120CF070C08FC070C081FB5012381
S315080084D0ADF80030044B019068460393FFF7DEFFC2
S315080084E005B05DF804FB00BF15850008CB68084693
S315080084F003B11847014823F0E7BA00BF1D080C0866
S3150800850000220249024826F0C3BA00BFD5860008F1
S31508008510289E00200388012B06D1044B1B780BB933
S31508008520FFF782BFFFF7ECBF704700BFB9CE012047
S3150800853010B5A4B003AB0193812301AC029301F0FB
S3150800854011FA214601F00AFF28B994E8030015F04C
S3150800855079FD24B010BD024823F0B6FAF9E700BF4A
S315080085604D080C0800230246194610B504461C4857
S315080085703AF05AFF1B4B186030B91B4823F0A4FA8F
S3150800858040F2047078F0EFF80023224601211748DC
S315080085903AF04AFF164B186030B9164823F094FA99
S315080085A040F2047078F0DFF81349144823F08CFA87
S315080085B00121134823F088FA22F0C2F803685B6F9A
S315080085C098470120FFF7B4FF00220E490E4891F0A4
S315080085D009FD0E4891F099FE0D4B1870002010BD4C
S315080085E0CD840008D437012065080C081106080850
S315080085F0D03701207F080C0866430C0899080C0838
S31508008600BD080C0825820008289E002048BB0020CB
S31508008610BACE012010B50379012B05D1BDE810406B
S3150800862040F6B830FFF7E6BE124B1C781CB1BDE821
S315080086301040FFF70BBFFFF7C7FE2046FFF778FF8E
S315080086400D4B1C7894B90D4891F006FD22464FF45F
S3150800865061710B4886F007FB0446084891F00AFD4D
S3150800866034B10848BDE8104023F02EBA0648F9E7A9
S3150800867010BD00BFB9CE0120BACE0120289E002029
S31508008680F88F0020DA080C0808090C081FB5002323
S31508008690CDE90233094B0A4C0193022301210093C9
S315080086A02046084B084A0DF01DFA2046074A084995
S315080086B004B0BDE81040B6F094B900BF798200084E
S315080086C0A83601204D8200083D820008A02B022012
S315080086D0195B010810B50121094892F013F820B179
S315080086E001F040F9012178F071FA064826F01EF9E2
S315080086F022F026F8BDE8104003681B6F184700BF34
S31508008700DC6E0120289E002010B50446017C044832
S3150800871027F086FB637C83F00103637410BD00BFFA
S31508008720DC6E012073B583680446E3B1C368D3B130
S315080087300E4B684619680B681B699847D4E90223EB
S31508008740DDE90065617C002918BF1346D4E90012EB
S315080087505B1842F10002B342AA4104D22046FFF751
S31508008760D3FFC4E9006502B070BD00BF9C2E02208D
S3150800877038B500230022C0E90233002304460D461B
S31508008780C0E90023027C024827F03AFB657438BD2D
S31508008790DC6E0120014891F0FEBC00BF44CA0020EF
S315080087A0014891F0FDBC00BF44CA002048F201020E
S315080087B010B50388934212D190F90830012B15D1D0
S315080087C00B4823F081F990F0DFF9036840F6B831D9
S315080087D05C69084AA446BDE810400023604748F291
S315080087E00202934202D190F90930E7E710BD00BFB3
S315080087F088090C083B060808044A08B5836802601D
S31508008800243242600BB1B7F082F908BDDC0A0C08C5
S31508008810A0F10400F0E700BF10B50446054B03605D
S315080088204033436014F048FA2046FFF7E5FF204638
S3150800883010BD00BFD4750C08A0F10400ECE700BF1A
S3150800884008B5094823F040F9084891F036FF50B9B1
S315080088500121064826F08EFC28B9054823F034F98C
S31508008860044826F013FB08BDB0090C0848BB0020D5
S31508008870CE090C0844CA00200B480C4B10B50360FF
S3150800888000230B4C0B492246C0E90133C36003742D
S3150800889043610383B6F0A5F82246BDE810400649B1
S315080088A00648B6F09EB800BFE437012058F20C0817
S315080088B0A02B0220D9E10208370608081C2D022041
S315080088C07FB50446724973483FF0A6FD724823F007
S315080088D0FBF82146714823F0F7F86F4823F0F4F8BF
S315080088E06F4823F0F1F80021084620F0F3FB002832
S315080088F040F0BB806B4D2B784BB9284626F0A0F983
S3150800890000280CBF012300232B7040F0AE8001F035
S3150800891029F8054678F042F9002840F0A680281D77
S3150800892021F094FE05F1080021F024FE21465E4858
S3150800893025F0DAF9FFF784FF002840F096805B48B7
S3150800894091F08AFB5A4CD4E8AF3FDA070BD420469D
S3150800895098F097FE38B1574A57495848B6F041F843
S31508008960204698F093FE564CD4E8AF3FDB070FD469
S31508008970204698F086FE58B15049524814F000FA3D
S315080089804C4A51494F48B6F02CF8204698F07EFEDE
S315080089904E4D4F4C4B4B2846E36325F027FCE368C6
S315080089A065631BB94B4B4C4AE3605A60A36BF3B93A
S315080089B04A4DE6686B68002B41D105F1140077F043
S315080089C062FE05F11C0077F05EFEEB6803B92B72B8
S315080089D095F82430424823F0050385F8243077F0CB
S315080089E052FE00236E602B7285F82430A563E36B74
S315080089F00BB93C4BE3633C4D3C4B2846E16823628C
S31508008A008AF0C3F8236A28462B6189F0F7F9B0B9CA
S31508008A10E268E5619AB1364B364D5A60236103F038
S31508008A2017FD354B02216062344A2120A3628FF07C
S31508008A3094FB2846E16808F083FB00B965610023CA
S31508008A4003932F4B2F4801932F4B029391F0FAFB78
S31508008A5001AB03901E492D48E36216F07BF80446E5
S31508008A60124891F007FB14B1204604B070BD2246A7
S31508008A7027490E4891F0B6FA264823F025F80B4800
S31508008A8026F0C0F804460028EED100F04FFBEBE7CD
S31508008A90997E0908957E0908E7090C081A0A0C0840
S31508008AA0260A0C08209E0020786D0120289E0020AA
S31508008AB0DC370120A02B022039060808D82C022012
S31508008AC0D83701200012002019880008E437012051
S31508008AD0DC2C0220B02D02200B1902209859012007
S31508008AE0A4590120B86100202C570120902D02209E
S31508008AF024570120E8560120942D0220360A0C0836
S31508008B009587000848BB0020A1870008506500200B
S31508008B10AD870008660A0C0810B51648FFF7D0FEA0
S31508008B2008B177F020FE144B1448D3F8FC1290F0E5
S31508008B300CF8124821F07AFD114891F08DFA00F0F0
S31508008B4011FF00B10C301AF013FB0D4891F092FAA0
S31508008B500C4822F0B9FF0C485BF068FC08B177F0C6
S31508008B6002FE0A4C20683AF093FB08B1B6F0CFFF34
S31508008B70206010BD8B0A0C08509500201C2D022081
S31508008B80289E0020980A0C0864BD0120E0370120C1
S31508008B9010B50F4891F0B8FD00210E4A0E483AF07C
S31508008BA023FB0E4C20600E4822F08EFF23680BB97B
S31508008BB0B6F0ADFF064891F0B8FD20F09FFA0948D7
S31508008BC022F082FFBDE81040AC2077F0CCBD00BF94
S31508008BD0DC6E0120140B0C08198B0008E037012005
S31508008BE0AA0A0C08BD0A0C0810B5044601210C2077
S31508008BF0064A8FF0B2FA0023E068A36020B1BDE808
S31508008C00104003689B68184710BD00BF380B0C0856
S31508008C10A0F10400E8E700BF10B50A4CD4E8AF3F5E
S31508008C20DB070DD4204698F02CFD48B10648074BC3
S31508008C30074A08490360B5F0D4FE204698F026FD99
S31508008C40014810BD003801200438012008D90C0855
S31508008C50A02B0220A906080810B504460B4B036092
S31508008C606433436000F50E702DF002FF636A23B18A
S31508008C70002204F11C0062629847236923B100228E
S31508008C8004F1080022619847204610BDA4690C0823
S31508008C90A0F10400E0E700BF10B50446034B40F816
S31508008CA0343B77F017FD204610BD00BF58630C080B
S31508008CB037B5C0680D46144638B901210C200E4A4E
S31508008CC08FF04BFA002003B030BD1A682146019296
S31508008CD000221A6001AA10F093FC01A877F0FAFCAA
S31508008CE0A38823B9E38813B92378402BEAD02B89C4
S31508008CF043F040032B81E5E74B0B0C08A0F1040079
S31508008D00D6E700BFF0B505460C46152003211A4ADA
S31508008D1085B08FF022FAAF6817B9032005B0F0BD09
S31508008D200023ADF808302389267B23B96389022BF3
S31508008D301ED1142E02D00123ADF8083060682DF03C
S31508008D40B7F863683246039302AB0093A1683846C6
S31508008D5003AB20F0A7FC044603A877F0BBFC2CB1B4
S31508008D60A86818B18FF02FFB0023AB602046D5E723
S31508008D70002BE0D1402EDDE77E0B0C0873B51648B4
S31508008D8010F02AFE1549164AD1F8FC32154E164D32
S31508008D905360A1F5405133460F48009510F014FF73
S31508008DA0124B336125F0D2FC044602460A49304686
S31508008DB011F0F8FF2946204625F05AFB40B10C4829
S31508008DC022F082FE6D210B4B0B4A0C4872F00AFC0E
S31508008DD06C6002B070BD00BF3016002050950020B0
S31508008DE0442D0220242D0220501500208051010018
S31508008DF08F0B0C08AB0B0C08C00B0C08DE0B0C0811
S31508008E0070B500243248334B334E036064334360F5
S31508008E1000F10803C0E90233304BC0E9044083611E
S31508008E2000F11C03C0E907332D4BC0E90940C0E92E
S31508008E300B342C4BC0E90D4443642033836405236B
S31508008E40C0E92044C0E92244C0E9644480F83C40B3
S31508008E50046480F8744080F89841C0F89C4180F812
S31508008E60A04180F8B84180F8D04180F8E841C0F8C0
S31508008E701C321D4B32461D491D4DC0F83832C0E91B
S31508008E808F4480F80042C0F8184280F8204280F8E3
S31508008E904442B5F0A6FD324616491748B5F0A1FD7D
S31508008EA0324616491648B5F09CFD2846154B6C60A7
S31508008EB040F8103B2C7227F04DF8C5E93444C5E953
S31508008EC0364432462846BDE870400F49B5F089BD9C
S31508008ED030160020A4690C08A02B02207DA90108E1
S31508008EE0D99A0108600C0C083C1E0D08598C00081C
S31508008EF050150020BD060808442D0220BF060808A4
S31508008F00242D022058630C08998C00082DE9F04F8F
S31508008F100446D0E90098D0E90276364A87B0936AC3
S31508008F20012105930369D2F82CB0D2F834A0956BC9
S31508008F3001934369304A029383690393C369002006
S31508008F4004938FF00AF901210020059B2B4A8FF024
S31508008F5004F95B4601210020294A8FF0FEF85346A2
S31508008F6001210020274A8FF0F8F82B46012100201E
S31508008F70254A8FF0F2F82B4601210020224A8FF06D
S31508008F80ECF8234601210020204A8FF0E6F84B46EC
S31508008F90012100201E4A8FF0E0F8434601210020F7
S31508008FA01C4A8FF0DAF83B46012100201A4A8FF056
S31508008FB0D4F8334601210020184A8FF0CEF8012153
S31508008FC00020019B164A8FF0C8F801210020029B59
S31508008FD0144A8FF0C2F801210020039B124A8FF031
S31508008FE0BCF801210020049B104A8FF0B6F898F0CF
S31508008FF0B8FEFEE700ED00E0980C0C08A30C0C0880
S31508009000B70C0C08CB0C0C08DF0C0C08F30C0C087E
S31508009010070D0C081B0D0C082F0D0C08430D0C082A
S31508009020570D0C086B0D0C087F0D0C08930D0C08DA
S31508009030012108B50020054B054A8FF08EF898F0F7
S3150800904090FE0449044872F0B7FFFEE7A70D0C0826
S31508009050F44B0D08CA0D0C08E10D0C0800240D464A
S3150800906000B59BB06022214602A80194B6F0E6FF3F
S315080090702B466421084A01A872F0B0FF0121204658
S31508009080064A01AB8FF069F898F06BFE044905486B
S3150800909072F092FFFEE700BFFA0D0C08F44B0D08BC
S315080090A0CA0D0C08E10D0C08034B0360034B0B605B
S315080090B04FF4A07313607047C04D0120C0480120CB
S315080090C0034B0360034B0B604FF4806313607047D8
S315080090D0084801200838012000240D4600B59BB039
S315080090E06022214602A80194B6F0A8FF2B46642107
S315080090F0054A01A872F072FF01212046034A01AB16
S315080091008FF02BF8B6F003FD0D0E0C08F44B0D0886
S3150800911001481EF0A3BE00BF105B0120024B0121CF
S3150800912018683AF0DBB800BF784E012010B50D4834
S315080091301EF0F2FD044628B175210B4B0B4A0C486C
S3150800914072F050FA02F0F2F802F038F92146094AAC
S3150800915009483AF049F8094B186008B9B6F0D7FC3F
S3150800916010BD00BF105B01201D0E0C08290E0C084F
S31508009170450E0C08C80E0C0811910008784E0120FF
S315080091800021044600B589B01A2201A80091B6F05C
S3150800919055FF2346074A1E21684672F01FFF694697
S315080091A0054822F091FC684677F0C9FA3BF0B0FB17
S315080091B0B6F0ADFCEC0E0C08020F0C08024B0121B0
S315080091C018683AF08BB800BF4C5001200D4BD9886F
S315080091D09A8889B292B2914211D0D9889A8889B26E
S315080091E092B291423DBF9A88D8881B89D8882DBFEC
S315080091F09B8813FA80F0801AC01A80B27047002044
S31508009200704700BF344F0120F8B50E46074628B907
S31508009210C8211A4B1A4A1B4872F0E4F91A4D2C89D0
S315080092208C4203D2C921194B154AF4E7FFF7CEFF42
S31508009230201A80B286421BD8EB88E888E41AA4B2C2
S31508009240A6422B6815D92246394613FA80F0B6F09D
S31508009250A0FF2868321B3919B6F09BFFEB8816FA6F
S3150800926083F12B89B1FBF3F203FB121189B2E98072
S31508009270F8BD3246394613FA80F0EDE71E0F0C08A2
S315080092802B0F0C08590F0C08344F0120D20F0C086D
S3150800929000232DE9F0411A4EC2B01A4FADF8063137
S315080092A04FF0FF330022306801A93AF097FB0446D5
S315080092B00028F5D1BDF8068195F065FC0121054623
S315080092C0084636F021FE284695F061FC0E4B4246CC
S315080092D001A9386830F0ACFB4FF0FF322146012077
S315080092E03AF046F895F04FFC05462146012036F03F
S315080092F00BFE284695F04BFC23462246D3E700BFD3
S31508009300904F0120D42C0220BD9100082DE9F84386
S31508009310DFF850801E46B8F800901546A3EB0907FB
S315080093200D4BFFB21C89FFF751FF241AA4B2A742BE
S3150800933007D8394605EB0900FFF766FF0023A8F8AA
S315080093400030064832462946054B006830F096F943
S31508009350BDE8F843FFF7E2BE344F0120D42C0220C3
S315080093600D930008FCCB012070B5254E3468002CFF
S3150800937045D195F0FFFA234B234A244D1A604FF442
S3150800938080729C801A81224980222868DC80214BC1
S3150800939030F074F91F4B80221F49286830F06EF9A7
S315080093A04FF482711D4A19203AF098FA1C4D21464D
S315080093B028601C4A1C4839F017FF306030B940F263
S315080093C017111A4B1A4A1B4872F00CF92B6823B965
S315080093D04FF48C71184B164AF5E70B2035F094FFBD
S315080093E00B2035F04DFF0423144A0521D364A2F55A
S315080093F0805213651248BDE8704095F0F8BD70BDFF
S315080094004C500120344F01205BE70120D42C022068
S315080094103F0602200D930008BF05022078100C08AD
S31508009420904F012098100C0891920008EF0F0C0835
S31508009430FF0F0C08590F0C0816100C080020015BCA
S315080094400000015B08B5FFF769FE0422014BDA64E8
S3150800945008BD00BF0020015B10B50C46C2B001462E
S3150800946018B94FF0FF3042B010BD631EB3F5817FC7
S31508009470F7D2224601A8B6F08CFE06480023182229
S31508009480006801A9ADF806413AF06EFA0028E8D15D
S3150800949020B2E8E7904F0120F0B50C46074685B0A4
S315080094A0002854D0002952D0FFF790FEA04219D2C6
S315080094B095F070FB05462748274E03AB01A90068BF
S315080094C002AA95F0EFFC338802998B4207D20198DD
S315080094D0C91A184489B2FFF797FE029B33802846BB
S315080094E095F05EFB1D4D2E89B44205D9E8211C4B2B
S315080094F01C4A1D4872F076F8FFF768FE844202D3CC
S31508009500FFF764FE0446AB88A988F61AB6B2A642E7
S315080095102B6817D2324613FA81F13846B6F039FE6F
S315080095202968A21BB819B6F034FEAB882A8914FA42
S3150800953083F3B3FBF2F102FB11339BB2AB8020B28B
S3150800954005B0F0BD2246384613FA81F1EBE74FF035
S31508009550FF30F5E7D42C0220FCCB0120344F012044
S3150800956023100C083F100C08590F0C0810B58CB0C6
S31508009570044677F01AF90021102208A8B6F05EFD15
S3150800958001230E4A02A8CDE903230D4B0594079340
S315080095904FF47053029377F0FBF8029B069396F00C
S315080095A0D2F90023000240F00100049001A903A8A3
S315080095B001939BF0DEFF0CB010BD00BF12710001D5
S315080095C00906000670B58CB00C461546064677F0B7
S315080095D0ECF80021102208A8B6F030FD0123114A44
S315080095E002A8CDE90323104B059607934FF4705351
S315080095F0029377F0CDF8029B069396F0A4F9002320
S31508009600000240F0010021462A460490019303A86F
S3150800961001AB9BF04FF9044603A89CF005F92046D8
S315080096200CB070BD127100010906000610B50A4B90
S3150800963086B0144602930023059103901A46CDE995
S315080096400033214405A898F048FC002814BFAC2034
S31508009650002006B010BD00BFCD0708082DE9F0416F
S31508009660BEB0449D98462B6804460E461746002B06
S3150800967057D06B68B3F5007F53D302A89CF0E2FC81
S3150800968000213C2207A80691B6F0D8FCD8F8043089
S315080096908BB1CDE900674021D8F80030224A06A8E8
S315080096A072F09CFC06A902A89CF0E3FC58B1AC2019
S315080096B03EB0BDE8F081334640211C4A009706A813
S315080096C072F08CFCEEE7092102A89CF0CEFC20681B
S315080096D0FFF74CFF16A89AF0CAFA216816A83DF0BB
S315080096E0E1FF04460028E2D116A902A89CF0BFFCB7
S315080096F000942346D5E9001202A841F05BFB044614
S315080097000028D4D12868B6F051FD6B68013098421C
S3150800971001D9B6F0FCF9686002A89CF097FC2046CF
S31508009720C6E72F20C4E700BFBC100C08D6100C08EB
S31508009730F0B50C46002197B00646154607A83C2208
S315080097400691B6F07BFC402305AACDE9013206AFA7
S31508009750009705930E49D4E9002330689BF0D6FCA0
S31508009760044698B9059E6B689E420DD8324639461E
S315080097702868B6F00EFD6B689E4201D9B6F0C7F9A7
S3150800978020466E6017B0F0BD1920FBE7AC20F9E75C
S3150800979009060006F7B5104C1F4623680D461646FF
S315080097A09BB1009202211D200C4A8EF0D6FC75B1A1
S315080097B02268B2420DD828460949B6F0EAFC0020CC
S315080097C023683B60206003B0F0BDAE20FBE72F2086
S315080097D0F9E71920F7E700BF50500120FB100C08E5
S315080097E0BF06022038B50D461446134602211D2031
S315080097F0054A8EF0B2FC2B4622460021192062F05B
S31508009800F9F8002038BD00BF17110C0807B5054B3D
S31508009810802200930021044B62F0BAF8002003B0BE
S315080098205DF804FBBF0602205050012038B50446F7
S315080098300D46204676F0D9FF2B7C002857D0052BFD
S3150800984059D0032B17D0042B38D0012B4DD1022227
S315080098502146284677F087F8002833D12946284636
S3150800986077F0C5F870BB95F82430002B0CBF03239E
S3150800987005232B74DDE795F825209AB1214628465D
S315080098802A7F77F070F8E8B92946284677F0F0F885
S31508009890C0B995F8253073B90223AA691A442A6211
S315080098A00423E6E72B7D013BDBB2022B9CBF134A60
S315080098B0D25CAA61F0E72B7F0233EEE795F82430F5
S315080098C00BB1232038BDAA690AB91820FAE7214640
S315080098D0284677F048F80028F4D12946284677F034
S315080098E0EFF80028EED10523C3E70320EAE7052BA6
S315080098F001D00D20E6E70020E4E700BF30110C0890
S315080099002DE9F04100240546A046144F86B000F123
S31508009910AC06304601ABC4F180023919CDF8048093
S31508009920FFF738FFB8B18CB10D4B04AA0493802316
S3150800993002A92846CDE90274059377F04BF9DDE9CB
S31508009940041285F8B8003046FFF74CFF95F8B800C2
S3150800995006B0BDE8F081019B1C44DAE7BF07022088
S315080099603F07022000487047545001200021154B3C
S3150800997010B5154C03F19802626003F1E00223600A
S31508009980A26003F58673802204F12800C4E9041155
S31508009990C4E90611C4E90811E360B6F04FFB0B4BA6
S315080099A0C4F8B440C4F8A830094B2046C4F8B0300F
S315080099B0012384F8B830074A0749BDE81040B5F0D6
S315080099C010B800BFBC120C0854500120FC130C0838
S315080099D03C110C08A02B02209B0B0808F0B5CB788D
S315080099E00C461546806885B003B9A830A378032BC2
S315080099F05AD8DFE803F041021A2E00268DF80C60CB
S31508009A0003682188DB6803AA9847D82802D050B192
S31508009A1005B0F0BD31462A46208877F06FF8002851
S31508009A20F6D10020F4E703A9F5E70026ADF80C60A7
S31508009A30036821885B6903AA9847D82803D00028B9
S31508009A40E6D103A900E031462A46208877F069F86E
S31508009A50E5E70026039603682188DB6903AA984789
S31508009A60D82803D00028D3D103A900E031462A46D6
S31508009A70208877F06AF8D2E700260396036803AAD7
S31508009A8000929F6A094A4FF400732188B847D8287C
S31508009A9003D00028BCD1054900E031462B46039A7D
S31508009AA0208877F066F8BAE72620B1E74B0C022043
S31508009AB02DE9F743054608460C4676F0A3FE074609
S31508009AC0002845D0264876F090FE254E58B18742A4
S31508009AD03A46314628BF0246204676F028FF10B19E
S31508009AE003B0BDE8F083DFF87C801D4F28E03368BB
S31508009AF0013AC6E90233D8F80031C8F8042158F803
S31508009B002310013303F03F03C8F800312B68019195
S31508009B103A462846DB6901A998470028E0D120463D
S31508009B2076F070FE8146384676F05FFE81454A46F5
S31508009B30394628BF0246204676F0F9FE0028CFD1DE
S31508009B40204676F05FFE18B1D8F80421002ACED157
S31508009B5028462B68DB6803B0BDE8F043184700BF0A
S31508009B60185201201051012070B504460D460E4EBC
S31508009B70284676F03AFE28B923682046BDE87040A4
S31508009B809B68184731462846FFF750FE0D28EFD048
S31508009B9048B9236820469B690349984718B902487B
S31508009BA077F082F8E4E770BD4852012008B50B4605
S31508009BB0498AB1F5817F15D005D840F20112914244
S31508009BC00CD0A62009E06FF481728A18012AF8D809
S31508009BD01A7D064877F077F810B108BDDB6AC360CE
S31508009BE00020FAE7DB6A0361FAE700BF105101209B
S31508009BF008B503480A7D498A77F065F808BD00BFAD
S31508009C001051012070B591F826300C46856803B9C5
S31508009C10A83594F82730227D23B1618A174877F052
S31508009C2052F850BB237D032B26D8DFE803F0160233
S31508009C300E112B689B6894F82420618A5AB904F19E
S31508009C402C022846BDE8704018472B681B69F2E7C6
S31508009C502B689B69EFE70022F3E72B68618ADE6AC7
S31508009C6094F8243033B9E26A2846B446A369BDE8B5
S31508009C70704060470022F7E7262070BD105101208A
S31508009C8010B50A46498AB1F5A27F16D008D840F21F
S31508009C900513994218D0B1F5A17F0ED0A62017E07A
S31508009CA040F2A1139942F9D180680368DC6A936986
S31508009CB0A446BDE81040D26A604780682C32036823
S31508009CC0BDE810401B691847127D024876F0FBFF75
S31508009CD010BD00BF105101202DE9F04100254B6849
S31508009CE092B0052B0746884616468DF805508DF81E
S31508009CF006508DF8075040F2B3800A68023B1344B9
S31508009D000DF1050102A8CDE903330292059276F01A
S31508009D1048FE0446002840F09F800DF1060102A87F
S31508009D2076F03FFE0446002840F096800DF10701C4
S31508009D3002A876F036FE0446002840F08D80D8F852
S31508009D4004203368802A00F2868072687F2A40F2EF
S31508009D50858003F108027E33CDE907329DF8063087
S31508009D600692013B0992042B73D8DFE803F0370308
S31508009D70646B5C000020089A069B9A4288BFD41A36
S31508009D80E5B20446002133680BA803F10802CDE9C1
S31508009D9007231C22069309930A91B6F04FF902216C
S31508009DA006A876F03CFD9DF8061006A841F080014D
S31508009DB076F035FD9DF8071006A876F030FD2146A9
S31508009DC006A876F051FD294606A876F028FD7268A1
S31508009DD005F10A03934245D9B5F099FE01220025FB
S31508009DE07B682A480C932A4B8DF82C200A93294B1A
S31508009DF0CDE90D5503F50172C0E901230360C3607F
S31508009E0076F052FF244A254B02F50271C3E9011286
S31508009E101A60DA60224BC3F8045106AA02A90AA8F6
S31508009E2076F076FFA7E701227B688DF82C200C9345
S31508009E301C4B0A93F1E703227B688DF82C200C93C0
S31508009E40194BF6E704227B688DF82C200C93174BE8
S31508009E50EFE72A208FE7C224002593E71924FBE7BA
S31508009E6019248FE7083573600AAA2946306823F053
S31508009E7091FE9DF80600BDF82820023818BF01207B
S31508009E8033685A5312B0BDE8F08100BF485201202A
S31508009E9050110C08470A02203F08022018520120D8
S31508009EA01051012078110C08A0110C08C8110C08D3
S31508009EB038B500240125144B144803F50172C0E98E
S31508009EC001230360C360C0E908440574448204752D
S31508009ED084610477846276F0E7FE0D4B0D4803F53E
S31508009EE00272C0E901230360C360C0E9084405742F
S31508009EF04482047584610477846276F0D5FE064B45
S31508009F00C3E9404438BD00BF470A02204852012031
S31508009F103F08022018520120105101202DE9F04176
S31508009F20002486B0884617461E460B2201AB03A9B5
S31508009F30CDE90344CDE90144CDF8134000F046FECF
S31508009F40044650B140F2012398422DD001211F202A
S31508009F50174A03AB8EF001F926E0019D0A2D01D0C0
S31508009F602F24F3E72A4602A903A871F02BFC029ACC
S31508009F7004AB9A42A8F80000F2D12A4602A90DF1CC
S31508009F80110071F01FFC029A0DF113039A42387002
S31508009F90E6D12A4602A905A871F014FC029A0DF129
S31508009FA016039A423070DBD1204606B0BDE8F08130
S31508009FB0E8110C080023F0B587B001930C46D1E9E7
S31508009FC0001201AB00F00EFE40F20123984225D1A3
S31508009FD002AD2A46144B03F110072E461868596835
S31508009FE0083303C6BB423546F7D163680F2B02D840
S31508009FF0192007B0F0BD256806AE134603CBB34259
S3150800A000286069601A4605F10805F6D11023019300
S3150800A010019B6268934204D9B5F079FD0028E8D11E
S3150800A020F6E700206360E4E7E4130C0810B540F295
S3150800A0306314A142034608D040F29710814215D016
S3150800A040B1F5B17F0DD0A62010BD42B11168094BFC
S3150800A050A1F57A729A4202D800F0F8FDF4E72F20AB
S3150800A060F2E702B112681A620020EDE702B112683F
S3150800A0705A62F9E7B8820100F0B5B1F5AA7F97B040
S3150800A080154606461A461C9C3CD8B1F5A07F09D849
S3150800A09040F20513994266D040F2111399425BD0FB
S3150800A0A0A6205EE06FF4A07319441329F8D801A31B
S3150800A0B053F821F0A1A10008A1A00008BBA100083F
S3150800A0C0A1A00008C1A10008C7A10008CDA10008E9
S3150800A0D0D3A10008A1A00008A1A00008A1A000081B
S3150800A0E0A1A00008A1A00008A1A00008A1A000083E
S3150800A0F0A1A00008A1A00008D9A10008DFA10008B6
S3150800A100E9A10008B1F5C17F00F08B800ED840F2B6
S3150800A110651399427BD0B1F5B37F7DD0B1F5B27F97
S3150800A120BED12346294600F0ADFD19E040F293134F
S3150800A130994200F0848040F295139942B0D1CDE956
S3150800A1400D5205B9EAB933683046D3F880300DA9FF
S3150800A150984730B90E9B21E02346294600F074FE45
S3150800A16048B317B0F0BD00F1280738460392B6F099
S3150800A1701DF8039A0130CDE906050597089215B929
S3150800A1800AB1B5F0C4FC07AB00933046728A318A2F
S3150800A19005AB00F00DFE0028E3D1089B23600AE01A
S3150800A1A003681B6B2946304698470028D9D12846AC
S3150800A1B0B5F0FCFF20600020D3E703689B6BF1E74E
S3150800A1C003681B6CEEE703685B6CEBE703689B6C44
S3150800A1D0E8E70368DB6CE5E703685B6DE2E72346BF
S3150800A1E0294600F0F3FCBBE721230DAF0C93036867
S3150800A1F00B970392DB6D0BA99847039A0028B0D1F9
S3150800A200134620212A4638468DF0B6FDD2E7234666
S3150800A210294600F043FDA3E72346294600F020FE21
S3150800A2209EE7CDE909530DB9002BAAD1336830460C
S3150800A2309B6F09A99847002893D10A9BAEE7CDE9F9
S3150800A2400B520DB9002A9CD133683046DB6F0BA937
S3150800A2509847002885D10C9BA0E700BFF0B54B684E
S3150800A2600646602B0C461546A5B029D9002782223A
S3150800A270394603A80297B5F0E1FE01AB86223046BF
S3150800A28002A9019700F00AFD40F20123984210D175
S3150800A29084220C4902A80192B5F07BFF2268019935
S3150800A2A002A81EF011FF28606368984205D9B5F028
S3150800A2B02EFC0028F2D025B0F0BD60600020FAE739
S3150800A2C01920F8E707120C0870B50026044696B060
S3150800A2D02A220D460BA831460A96B5F0AFFE01AB09
S3150800A2E02E2220460AA9019600F0CCFC40F2012352
S3150800A2F0984227D118230193174B0AAC03F1180685
S3150800A300224618685968083303C2B3421446F7D17F
S3150800A31000241C22214603A80294B5F08FFE019959
S3150800A32002AA0AA81EF0D0FE6B680646984210D804
S3150800A330024602A92868B5F02CFF6B689E4205D92B
S3150800A340B5F0E5FB0028E3D016B070BD20466E6078
S3150800A350FAE71920F8E700BF8C120C08F0B50026BA
S3150800A3604B6895B0032B05460C46019602D8192072
S3150800A37015B0F0BD0CAF01AB2022394600F070FDD8
S3150800A38040F20123984254D14FF08073059302237B
S3150800A3908DF81830384B284607932B688DF81060CF
S3150800A3A01B6EADF81260ADF81A60ADF802600DF1DB
S3150800A3B0020198470028DBD1BDF80220B2F5805F7C
S3150800A3C001D3B5F0A4FBBDF81A30C2F30B0223F48F
S3150800A3D0FF5323F01F031343ADF81A302B682846A2
S3150800A3E05B6B0DF1120198470028C1D12B682846EE
S3150800A3F0DB6B05A998470028BAD19DF81030BDF83F
S3150800A40012208DF82030ADF822209DF81730059AD5
S3150800A41009921BB19DF818308DF82830BDF81A300E
S3150800A4202146ADF82A30079B08A80B9392F0C3FA89
S3150800A4309EE700289CD1019B0BB9D82098E70F4AC4
S3150800A44023681188927819809A7062680333033AF0
S3150800A450CDE90232019B3846194602AA08970993A4
S3150800A4602BF0F6F9002883D1039B626803339342E5
S3150800A470A7D863607CE700BF25423401A5120C0803
S3150800A48070B5B1F5AA7F044616461D4692B039D86E
S3150800A490B1F5A07F06D840F21113994200F08480E6
S3150800A4A0A620E9E06FF4A07319441329F8D801A38C
S3150800A4B053F821F0B7A50008A1A40008D1A5000803
S3150800A4C0A1A40008EBA5000805A600081FA6000819
S3150800A4D039A60008A1A40008A1A40008A1A40008A0
S3150800A4E0A1A40008A1A40008A1A40008A1A400082A
S3150800A4F0A1A40008A1A4000853A600088BA600087A
S3150800A500A5A60008B1F5C17F00F0218126D8B1F5CE
S3150800A510B37F00F0F6800ED8B1F5B27F00F0E68082
S3150800A52040F265139942BBD12A46314612B0BDE8BE
S3150800A530704000F0ADBB40F281139942B0D112B120
S3150800A540002D40F0FE80002305AACDE909238DF8E9
S3150800A5501430204609A976F091FD8DE0B1F5CB7F40
S3150800A56000F0098112D840F29313994200F0F9805D
S3150800A57040F29513994293D131462A4609A876F0B6
S3150800A5801DFD204609A900F0DBFB75E040F2A1138A
S3150800A590994285D1002A40F0F88080223146283039
S3150800A5A0B5F04CFD002067E02A46314612B0BDE8FA
S3150800A5B0704000F043BC02B13DB9002279492046FB
S3150800A5C012B0BDE8704000F0FFB92A463146F6E7FA
S3150800A5D002B13DB900227349204612B0BDE8704069
S3150800A5E000F01ABA2A463146F6E702B13DB900220A
S3150800A5F06C49204612B0BDE8704000F049BA2A46B8
S3150800A6003146F6E702B13DB900226649204612B046
S3150800A610BDE8704000F062BA2A463146F6E702B154
S3150800A6203DB900225F49204612B0BDE8704000F0EF
S3150800A63067BA2A463146F6E702B13DB900225949BA
S3150800A640204612B0BDE8704000F06CBA2A46314682
S3150800A650F6E702B195B900211C220AA80991B5F0BE
S3150800A660EDFC2021504AA38A09A871F0B7FC09A974
S3150800A6700246204600F07EFA12B070BD2A463146E0
S3150800A68012B0BDE8704000F075BA02B13DB90A22B1
S3150800A6904649204612B0BDE8704000F091BA2A46F5
S3150800A6A03146F6E702B1B5B9102105A88FF0C9F809
S3150800A6B0022310210093212309AA05A88DF000FB87
S3150800A6C00028D9D109A8B5F071FD09A90246204686
S3150800A6D000F082FAD0E7102D01D92F20CCE702230B
S3150800A6E0294600933046212309AAE7E7002AF4D031
S3150800A6F0002BF2D01A46314612B0BDE8704000F081
S3150800A700BBBA02B1B3B90023CDE90933CDF82B3072
S3150800A710236A09A80293E38A0193E3690093628A8C
S3150800A720218AA36976F005FC0B22204609A900F0C8
S3150800A73091FBA1E71A46314612B0BDE8704000F019
S3150800A74089BB2A46314609A876F038FC01E7314626
S3150800A7501A4609A876F032FC204609A900F0A4FAA0
S3150800A7608AE731462A4609A876F028FC204609A930
S3150800A77000F0C0FA80E731461A4609A876F01EFCB2
S3150800A780204609A900F002FB76E77F2DA5D82A46C0
S3150800A79031462830B5F0FDFC00232C4484F82830D7
S3150800A7A000E700BF8C3A0D080D590C08A9120C08D1
S3150800A7B0012903BF034B00201B78A62008BF13708E
S3150800A7C0704700BF6B0E0220022938B514461D4695
S3150800A7D00FD1202200210848B5F030FC3CB1202DCD
S3150800A7E02A46214628BF20220348B5F0D2FC00207D
S3150800A7F038BDA620FCE700BF4B0E0220104608B560
S3150800A8006AB163B102290CD1202B28BF20231A462E
S3150800A810029B05491A60B5F0BCFC002008BD2F2034
S3150800A820FCE7A620FAE700BF4B0E0220012905D156
S3150800A83002B11278024B00201A707047A6207047A2
S3150800A8406B0E02200023F0B585B007460E46234856
S3150800A85003A91546039321F039FB00283CD1204C67
S3150800A860236813B90398B5F077FDD5E900121D4B97
S3150800A8701846B5F08EFC03466868B0F5007F05D229
S3150800A880C0F50072FF211844B5F0D8FB6B680221A9
S3150800A890019323681F20144A0093039B8DF05DFCE7
S3150800A8A0236803980F494FF400721844B5F058FD11
S3150800A8B03846216821F05EFC70B93046696821F097
S3150800A8C059FC48B9002022686B68134413F03F020C
S3150800A8D01CBF40339B1A236005B0F0BD21720800E7
S3150800A8E0785201204B0C02202C140C082DE9F04359
S3150800A8F01D46002389B0074608460E461446CDE98C
S3150800A900053321F0EFF918B9D82009B0BDE8F0836E
S3150800A910304605A921F0DAFA0028F6D1204621F0BA
S3150800A920E1F90028F0D0204606A921F0CFFA002840
S3150800A930EBD1DDE90586079007A9124821F0C6FA8A
S3150800A9400446D8B9079B18EB030902D10EB1B5F036
S3150800A950DEF8009302213B461F20CDE901860A4A0C
S3150800A9608DF0FBFB6B689E420AD83246494628683A
S3150800A970B5F00FFC6B689E42E9D86E602046C4E7C6
S3150800A9801924FBE72172080051140C080020084B13
S3150800A99010B5186032B9074C2146BDE81040064884
S3150800A9A021F0E8BBA1F500518C1830F0C5FDF3E79E
S3150800A9B07852012000E0170821720800014821F0AA
S3150800A9C085BA00BF21720800014821F003BC00BF08
S3150800A9D000720800002307B50348019301AB21F074
S3150800A9E0C1FA03B05DF804FB00720800014821F0C3
S3150800A9F0A9BB00BF0C72080010B506480C4621F02A
S3150800AA003DFA40F20123984202BF4FF6F1732380C4
S3150800AA10002010BD0C720800014821F0DBBB00BF06
S3150800AA200D72080073B5002601AB0C480C46154696
S3150800AA30019621F097FA40F20123984208D14CB1C9
S3150800AA40062D09D920462946054A76F0CBFA30461E
S3150800AA5002B070BD0B20FBE71920F9E70D7208005C
S3150800AA606F140C08014821F06DBB00BF0B7208007B
S3150800AA7010B506480C4621F001FA40F20123984227
S3150800AA8002BF48F205032380002010BD0B720800A0
S3150800AA90014821F09FBB00BF0E72080073B500265F
S3150800AAA001AB0C480C461546019621F05BFA40F2BC
S3150800AAB00123984208D14CB1062D09D920462946CA
S3150800AAC0054A76F08FFA304602B070BD0B20FBE7D8
S3150800AAD01920F9E70E72080076140C08014821F0CF
S3150800AAE079BB00BF10720800002307B5034801931D
S3150800AAF001AB21F037FA03B05DF804FB10720800C9
S3150800AB00014821F067BB00BF11720800002307B592
S3150800AB100348019301AB21F025FA03B05DF804FB65
S3150800AB2011720800014821F055BB00BF12720800D7
S3150800AB30002307B50348019301AB21F013FA03B0CC
S3150800AB405DF804FB12720800014821F0FBBA00BF49
S3150800AB500873080010B506480C4621F08FF940F234
S3150800AB600123984202BF01232380002010BD00BFA5
S3150800AB7008730800014821F02DBB00BF0F720800BA
S3150800AB8073B5002601AB0C480C461546019621F014
S3150800AB90E9F940F20123984208D14CB10C2D09D9A4
S3150800ABA020462946054A76F01DFA304602B070BDA1
S3150800ABB00B20FBE71920F9E70F72080080140C0830
S3150800ABC0014821F007BB00BF04720800014821F0C4
S3150800ABD0C9B900BF04720800014821F015BB00BFBF
S3150800ABE01F720800014821F013BA00BF1F7208003F
S3150800ABF0014821F0A7BA00BF0772080013B510482C
S3150800AC000C4621F03BF940F201229042034604D15A
S3150800AC104FF47063238000230FE070B92388B3F5DF
S3150800AC20805FF8D34FF4BB732F240121CDE900349C
S3150800AC30044A054B8DF091FA2346184602B010BD1A
S3150800AC4007720800AD140C088D140C08014821F091
S3150800AC5091BA00BF0872080010B506480C4621F0E4
S3150800AC6035F940F20123984202BF4FF47A73236004
S3150800AC70002010BD08720800014821F0ABBA00BFD9
S3150800AC8009720800014821F06DB900BF0972080071
S3150800AC90014821F09FBA00BF0A720800014821F056
S3150800ACA061B900BF0A72080008B50A460248034996
S3150800ACB0FFF7C8FD08BD00BF267208002772080006
S3150800ACC00B4610B5084A0C4608480949FFF70EFE18
S3150800ACD0D82807D11AF038FD03682146BDE8104088
S3150800ACE09B68184710BD00BF27720800BE140C08E1
S3150800ACF02672080008B50A4602480349FFF7A2FD6E
S3150800AD0008BD00BF24720800257208000B4610B55E
S3150800AD10084A0C4608480949FFF7E8FDD82807D12C
S3150800AD201AF012FD03682146BDE810405B69184712
S3150800AD3010BD00BF25720800DA140C08247208003A
S3150800AD4008B50A4602480349FFF77CFD08BD00BF5F
S3150800AD5022720800237208000B4610B5084A0C46F2
S3150800AD6008480949FFF7C2FDD82807D11AF0ECFCB4
S3150800AD7003682146BDE810401B69184710BD00BF8F
S3150800AD802372080000150C0822720800022307B572
S3150800AD9001A8D1E900120193FEF748FC18B90199F8
S3150800ADA0024821F0E7F903B05DF804FB20720800B9
S3150800ADB01FB5022003900698009003A8FEF74EFCE4
S3150800ADC018B90399024821F0D5F905B05DF804FBD6
S3150800ADD020720800002370B5164886B00D46164640
S3150800ADE0049320F07FFFE8B1124804A921F06EF819
S3150800ADF0B0B9049B3246002B08BF0223294605A892
S3150800AE000593FEF795FC0446029073681F2001938C
S3150800AE106B6802210093084A049B8DF09EF9204630
S3150800AE2006B070BD1AF090FC0368324629469B6945
S3150800AE309847E8E72072080019150C08014821F020
S3150800AE40C9B900BF29720800014821F08BB800BFB4
S3150800AE5029720800014821F0D7B900BF0572080019
S3150800AE60014821F0D5B800BF05720800014821F055
S3150800AE7051B900BF28720800014820F0D7BF00BFAB
S3150800AE802872080008B5114911488EF0AEF9114923
S3150800AE9011488EF0AAF9114911488EF0A6F9114900
S3150800AEA011488EF0A2F9114911488EF09EF9114900
S3150800AEB011488EF09AF9114911488EF096F9BDE8B5
S3150800AEC00840104910488EF090B900BF207208005B
S3150800AED021730800217208002273080022720800F4
S3150800AEE023730800237208002473080024720800DC
S3150800AEF025730800257208002673080026720800C4
S3150800AF0027730800277208002873080010B5302038
S3150800AF100C4620F017F820B1024B8480036000230A
S3150800AF20836010BD54160C0810B52C2020F00AF8C2
S3150800AF30044628B12C220021B5F080F8014B236085
S3150800AF40204610BD8C160C0808B508201FF0FAFF1D
S3150800AF5018B100234360014B036008BDA8160C080E
S3150800AF60F8B543680446072B0D461FD8013B062B48
S3150800AF7096BF0F4A0F4F52F823703846B5F016F9A8
S3150800AF80232813D804F10806242239463046B5F09A
S3150800AF907CF80023304684F82B30B5F007F9C5E96C
S3150800AFA000600120636801336360F8BD0020FCE798
S3150800AFB010160C0864150C08042370B51446456869
S3150800AFC08AB0ADF802302B680A4601A805499E6882
S3150800AFD076F0EAF8224628460DF1020301A9B047A1
S3150800AFE00AB070BD6A150C0830B544681346226865
S3150800AFF08BB0156901A80A46034976F0D5F82046AC
S3150800B00001A9A8470BB030BD77150C0830B58DB02F
S3150800B0104468019223680A4603A80649DD6876F063
S3150800B020C3F8042320460DEB030203A9A8470DB075
S3150800B03030BD00BF6A150C08F0B5A3B0064617A8C0
S3150800B0401F460C4615468BF047FC2A2217A80CA962
S3150800B0508BF055FC0DF10B03019315234FF4807209
S3150800B060009317A800238BF079FE50BB97E80300DE
S3150800B070154B8DE80300D3E9002317A88BF046FF8C
S3150800B080F8B9D7E90201114B8DE80300D3E900238B
S3150800B09017A88BF03BFFA0B99DF90B1017A88BF0EA
S3150800B0A092FE70B97668224633680949DF6803A8B4
S3150800B0B02B4676F079F83046BDF874300CAA03A909
S3150800B0C0B84723B0F0BD00BFF8160C08F0160C08F8
S3150800B0D077150C0813B5044608460A4B1146C4E909
S3150800B0E000300023C4E903330193036822815B6AB5
S3150800B0F001AA984710B9019BC4E90303204602B088
S3150800B10010BD00BF70160C082DE9F341836804468C
S3150800B110032B0D4603D9002002B0BDE8F0818288D2
S3150800B120022100921F20184A8DF017F8A368032BF6
S3150800B130F1D8164A52F82360154A304652F8238049
S3150800B140B5F034F81028E6D84046B5F02FF81028A0
S3150800B150E1D804F10C073146384604F11D0676F0AD
S3150800B16049F84146304676F045F83846B5F01EF8B7
S3150800B170C5E900703046B5F019F8C5E90260A3685C
S3150800B18001200133A360C7E788150C083C160C0894
S3150800B1902C160C082DE9F041D0E9033293420446F7
S3150800B1A00D469EB003D300201EB0BDE8F0812A26C6
S3150800B1B042683B495768ADF802603A68D2F8088099
S3150800B1C0028910A875F0F0FF38460DF1020305AAAA
S3150800B1D010A9C0470028E6D110A88AF0C3FE324657
S3150800B1E005A910A88AF001FF4FF4807200231521E3
S3150800B1F010A88BF012FA0028D5D10DF1010110A87C
S3150800B2008BF001F90028CED1264BCDE90100D3E910
S3150800B2100023CDE9030010A88BF0F2F90028C2D16B
S3150800B22001AE314610A88BF067FA0028BBD11E4B39
S3150800B23010A8D3E900238BF0E3F90028B3D10DF168
S3150800B2400C08414610A88BF057FA0028ABD110A875
S3150800B2508BF0CBF90028A6D19DF9011010A88BF028
S3150800B2606FF900289FD196E8060004F1140704F147
S3150800B2702506384675F0C6FF98E80600304675F08C
S3150800B280C1FF3846B4F092FFC5E900703046B4F005
S3150800B2908DFFC5E90260E36801200133E36083E7B7
S3150800B2A077150C08F8160C08F0160C08F8B50546BC
S3150800B2B00E460024094FAC4206DB1CF06BFE08491B
S3150800B2C08CF099FA0020F8BD1CF064FE56F824208C
S3150800B2D039468CF090FA0134EDE700BF00170C08E8
S3150800B2E006170C08F8B505460E460024064FAC426C
S3150800B2F001DB0020F8BD56F824303A4602211C200E
S3150800B3008CF02BFF0134F2E7F44B0D0810B51CF056
S3150800B31041FE044689F07EFB0349024620468CF02E
S3150800B3206AFA002010BD00BF04170C080322024960
S3150800B33002481CF0CFBC00BF58170C08105B012050
S3150800B3402DE9F04700240646E0B088464FF4BE7261
S3150800B350214601A80094B4F071FEA64228DD6D4688
S3150800B3604FF0200958F824A05046B4F01FFF60ABF0
S3150800B3702F189F4202461DD228465146B4F085FE34
S3150800B3807D1C60AB9D4204F101042CBF3D4687F845
S3150800B3900090A642E6D108488EF0FDFE68469BF06E
S3150800B3A010F805488EF0FCFE002060B0BDE8F08776
S3150800B3B02F20FAE71920F8E744CA0020012202499B
S3150800B3C002481CF087BC00BFA4170C08105B0120BC
S3150800B3D010B50446034B40F8083B2CF071FD204697
S3150800B3E010BD00BFF41A0C0810B50446034B40F80C
S3150800B3F00C3BFFF7EDFF204610BD00BF1C1B0C08D9
S3150800B40070B5436B05460C4643B1134B24200029FF
S3150800B41018BF0B46114A03218CF09FFE2B68214664
S3150800B4201B6C284698476B6B064653B1A0280AD171
S3150800B430094B0B4A002C18BF2346032124208CF005
S3150800B4408CFE304670BD9F28FBD1034B054A002C65
S3150800B45018BF2346F1E700BFB0170C08B7170C084A
S3150800B460FA170C0844180C082DE9F0411F46436BDF
S3150800B4700546012B0C46164608D9154B24200029EB
S3150800B48018BF0B46134A03218CF067FE2B68324619
S3150800B490D3F8388021463B462846C0476B6B06469C
S3150800B4A0012B0AD9A0280BD1094B0B4A002C18BF2F
S3150800B4B02346032124208CF050FE3046BDE8F08157
S3150800B4C09F28FAD1024B054A002C18BF2346F0E7FD
S3150800B4D0B0170C0894180C08D1180C0818190C0881
S3150800B4E010B50446054B036000F5CF608DF000FAF1
S3150800B4F023690BB1B4F00BFB204610BD88DC0C08A1
